pr184v3
:0400000011EF00F00C
:0C000800D9CF2EF0DACF2FF0F5EF08F082
:10001800E0CF35F035C0E0FF1000CFEF0AF0F29ED8
:1000280000F020C03DF0F28E23503D5C3A6E3B6AF2
:10003800D8A03B063B503A10D8B412003C6A3B505B
:10004800800A800F010ED8B43A5C02E3010E3C6EC0
:1000580023503D5C366E376AD8A0370686EC0BF025
:1000680036503E6E800E3E6406D03E5000083E6E0E
:100078003C5001083C6E8250010B3C1805E0376A81
:10008800010E366E6AEC0BF000F03C6602D08290EE
:1000980001D08280050E47EC0BF08286050E47ECF6
:1000A8000BF03E0682963E6603D03DC023F0120058
:1000B800050E47EC0BF08286050E47EC0BF03E066A
:1000C80082963E6601D0F1D7050E47EC0BF082868A
:1000D800050E47EC0BF03E0682963E6601D0E5D74A
:1000E800050E47EC0BF08286050E47EC0BF03E063A
:1000F80082963E6601D0D9D7050E47EC0BF0828672
:10010800050E47EC0BF03E0682963E6601D0CDD731
:10011800050E47EC0BF08286050E47EC0BF03E0609
:1001280082963E6601D0C1D7050E47EC0BF0828659
:10013800050E47EC0BF03E0682963E6601D0B5D719
:10014800050E47EC0BF08286050E47EC0BF03E06D9
:1001580082963E6601D0A9D7050E47EC0BF0828641
:10016800050E47EC0BF03E0682963E6601D09DD701
:10017800050E47EC0BF08286050E47EC0BF03E06A9
:1001880082963E6601D091D7050E47EC0BF0828629
:10019800050E47EC0BF03E0682963E6601D085D7E9
:1001A800050E47EC0BF08286050E47EC0BF03E0679
:1001B80082963E6601D079D7050E47EC0BF0828611
:1001C800050E47EC0BF03E0682963E6601D06DD7D1
:1001D800050E47EC0BF08286050E47EC0BF03E0649
:1001E80082963E6601D061D7050E47EC0BF08286F9
:1001F800050E47EC0BF03E0682963E6601D055D7B9
:10020800050E47EC0BF08286050E47EC0BF03E0618
:1002180082963E6601D049D7050E47EC0BF08286E0
:10022800050E47EC0BF03E0682963E6601D03DD7A0
:10023800050E47EC0BF08286050E47EC0BF03E06E8
:1002480082963E6601D031D7050E47EC0BF08286C8
:10025800050E47EC0BF03E0682963E6601D025D788
:10026800050E47EC0BF08286050E47EC0BF03E06B8
:1002780082963E6601D019D7050E47EC0BF08286B0
:10028800050E47EC0BF03E0682963E6601D00DD770
:10029800050E47EC0BF08286050E47EC0BF03E0688
:1002A80082963E6601D001D7050E47EC0BF0828698
:1002B800050E47EC0BF03E0682963E6601D0F5D659
:1002C800050E47EC0BF08286050E47EC0BF03E0658
:1002D80082963E6601D0E9D6050E47EC0BF0828681
:1002E800050E47EC0BF03E0682963E6601D0DDD641
:1002F800050E47EC0BF08286050E47EC0BF03E0628
:1003080082963E6601D0D1D6050E47EC0BF0828668
:10031800050E47EC0BF03E0682963E6601D0C5D628
:10032800050E47EC0BF08286050E47EC0BF03E06F7
:1003380082963E6601D0B9D6050E47EC0BF0828650
:10034800050E47EC0BF03E0682963E6601D0ADD610
:10035800050E47EC0BF08286050E47EC0BF03E06C7
:1003680082963E6601D0A1D6050E47EC0BF0828638
:10037800050E47EC0BF03E0682963E6601D095D6F8
:10038800050E47EC0BF08286050E47EC0BF03E0697
:1003980082963E6601D089D6050E47EC0BF0828620
:1003A800050E47EC0BF03E0682963E6601D07DD6E0
:1003B800050E47EC0BF08286050E47EC0BF03E0667
:1003C80082963E6601D071D6050E47EC0BF0828608
:1003D800050E47EC0BF03E0682963E6601D065D6C8
:1003E800050E47EC0BF08286050E47EC0BF03E0637
:1003F80082963E6601D059D6050E47EC0BF08286F0
:10040800050E47EC0BF03E0682963E6601D04DD6AF
:10041800050E47EC0BF08286050E47EC0BF03E0606
:1004280082963E6601D041D6050E47EC0BF08286D7
:10043800050E47EC0BF03E0682963E6601D035D697
:10044800050E47EC0BF08286050E47EC0BF03E06D6
:1004580082963E6601D029D6050E47EC0BF08286BF
:10046800050E47EC0BF03E0682963E6601D01DD67F
:10047800050E47EC0BF08286050E47EC0BF03E06A6
:1004880082963E6601D011D6050E47EC0BF08286A7
:10049800050E47EC0BF03E0682963E6601D005D667
:1004A800050E47EC0BF08286050E47EC0BF03E0676
:1004B80082963E6601D0F9D5050E47EC0BF0828690
:1004C800050E47EC0BF03E0682963E6601D0EDD550
:1004D800050E47EC0BF08286050E47EC0BF03E0646
:1004E80082963E6601D0E1D5050E47EC0BF0828678
:1004F800050E47EC0BF03E0682963E6601D0D5D538
:10050800050E47EC0BF08286050E47EC0BF03E0615
:1005180082963E6601D0C9D5050E47EC0BF082865F
:10052800050E47EC0BF03E0682963E6601D0BDD51F
:10053800050E47EC0BF08286050E47EC0BF03E06E5
:1005480082963E6601D0B1D5050E47EC0BF0828647
:10055800050E47EC0BF03E0682963E6601D0A5D507
:10056800050E47EC0BF08286050E47EC0BF03E06B5
:1005780082963E6601D099D5050E47EC0BF082862F
:10058800050E47EC0BF03E0682963E6601D08DD5EF
:10059800050E47EC0BF08286050E47EC0BF03E0685
:1005A80082963E6601D081D5050E47EC0BF0828617
:1005B800050E47EC0BF03E0682963E6601D075D5D7
:1005C800050E47EC0BF08286050E47EC0BF03E0655
:1005D80082963E6601D069D5050E47EC0BF08286FF
:1005E800050E47EC0BF03E0682963E6601D05DD5BF
:1005F800050E47EC0BF08286050E47EC0BF03E0625
:1006080082963E6601D051D5050E47EC0BF08286E6
:10061800050E47EC0BF03E0682963E6601D045D5A6
:10062800050E47EC0BF08286050E47EC0BF03E06F4
:1006380082963E6601D039D5050E47EC0BF08286CE
:10064800050E47EC0BF03E0682963E6601D02DD58E
:10065800050E47EC0BF08286050E47EC0BF03E06C4
:1006680082963E6601D021D5050E47EC0BF08286B6
:10067800050E47EC0BF03E0682963E6601D015D576
:10068800050E47EC0BF08286050E47EC0BF03E0694
:1006980082963E6601D009D5050E47EC0BF082869E
:1006A800050E47EC0BF03E0682963E6601D0FDD45F
:1006B800050E47EC0BF08286050E47EC0BF03E0664
:1006C80082963E6601D0F1D4050E47EC0BF0828687
:1006D800050E47EC0BF03E0682963E6601D0E5D447
:1006E800050E47EC0BF08286050E47EC0BF03E0634
:1006F80082963E6601D0D9D4050E47EC0BF082866F
:10070800050E47EC0BF03E068296CFD4F29E00F021
:1007180022C03DF0F28E25503D5C3A6E3B6AD8A06F
:100728003B063B503A10D8B412003C6A3B50800A52
:10073800800F010ED8B43A5C02E3010E3C6E2550DE
:100748003D5C366E376AD8A0370686EC0BF036501B
:100758003E6E800E3E6406D03E5000083E6E3C5011
:1007680001083C6E8038E832010B3C1805E0376A16
:10077800010E366E6AEC0BF000F03C6602D0809AEF
:1007880001D0808A050E47EC0BF08480050E47ECFB
:100798000BF03E0684903E6603D03DC025F0120063
:1007A800050E47EC0BF08480050E47EC0BF03E0677
:1007B80084903E6601D0F1D7050E47EC0BF084809B
:1007C800050E47EC0BF03E0684903E6601D0E5D757
:1007D800050E47EC0BF08480050E47EC0BF03E0647
:1007E80084903E6601D0D9D7050E47EC0BF0848083
:1007F800050E47EC0BF03E0684903E6601D0CDD73F
:10080800050E47EC0BF08480050E47EC0BF03E0616
:1008180084903E6601D0C1D7050E47EC0BF084806A
:10082800050E47EC0BF03E0684903E6601D0B5D726
:10083800050E47EC0BF08480050E47EC0BF03E06E6
:1008480084903E6601D0A9D7050E47EC0BF0848052
:10085800050E47EC0BF03E0684903E6601D09DD70E
:10086800050E47EC0BF08480050E47EC0BF03E06B6
:1008780084903E6601D091D7050E47EC0BF084803A
:10088800050E47EC0BF03E0684903E6601D085D7F6
:10089800050E47EC0BF08480050E47EC0BF03E0686
:1008A80084903E6601D079D7050E47EC0BF0848022
:1008B800050E47EC0BF03E0684903E6601D06DD7DE
:1008C800050E47EC0BF08480050E47EC0BF03E0656
:1008D80084903E6601D061D7050E47EC0BF084800A
:1008E800050E47EC0BF03E0684903E6601D055D7C6
:1008F800050E47EC0BF08480050E47EC0BF03E0626
:1009080084903E6601D049D7050E47EC0BF08480F1
:10091800050E47EC0BF03E0684903E6601D03DD7AD
:10092800050E47EC0BF08480050E47EC0BF03E06F5
:1009380084903E6601D031D7050E47EC0BF08480D9
:10094800050E47EC0BF03E0684903E6601D025D795
:10095800050E47EC0BF08480050E47EC0BF03E06C5
:1009680084903E6601D019D7050E47EC0BF08480C1
:10097800050E47EC0BF03E0684903E6601D00DD77D
:10098800050E47EC0BF08480050E47EC0BF03E0695
:1009980084903E6601D001D7050E47EC0BF08480A9
:1009A800050E47EC0BF03E0684903E6601D0F5D666
:1009B800050E47EC0BF08480050E47EC0BF03E0665
:1009C80084903E6601D0E9D6050E47EC0BF0848092
:1009D800050E47EC0BF03E0684903E6601D0DDD64E
:1009E800050E47EC0BF08480050E47EC0BF03E0635
:1009F80084903E6601D0D1D6050E47EC0BF084807A
:100A0800050E47EC0BF03E0684903E6601D0C5D635
:100A1800050E47EC0BF08480050E47EC0BF03E0604
:100A28008490BBD6F29E00F021C03DF0F28E245097
:100A38003D5C3A6E3B6AD8A03B063B503A10D8B4AE
:100A480012003C6A3B50800A800F010ED8B43A5C11
:100A580002E3010E3C6E24503D5C366E376AD8A026
:100A6800370686EC0BF036503E6E800E3E6406D09C
:100A78003E5000083E6E3C5001083C6E8430010B2D
:100A88003C1805E0376A010E366E6AEC0BF000F090
:100A98003C6602D0849201D08482050E47EC0BF0AC
:100AA80084848382050E47EC0BF03E06849483927F
:100AB8003E6603D03DC024F01200050E47EC0BF053
:100AC80084848382050E47EC0BF03E06849483925F
:100AD8003E6601D0EFD7050E47EC0BF08484838285
:100AE800050E47EC0BF03E06849483923E6601D0D7
:100AF800E1D7050E47EC0BF084848382050E47ECA2
:100B08000BF03E06849483923E6601D0D3D7050E3F
:100B180047EC0BF084848382050E47EC0BF03E060D
:100B2800849483923E6601D0C5D7050E47EC0BF03E
:100B380084848382050E47EC0BF03E0684948392EE
:100B48003E6601D0B7D7050E47EC0BF0848483824C
:100B5800050E47EC0BF03E06849483923E6601D066
:100B6800A9D7050E47EC0BF084848382050E47EC69
:100B78000BF03E06849483923E6601D09BD7050E07
:100B880047EC0BF084848382050E47EC0BF03E069D
:100B9800849483923E6601D08DD7050E47EC0BF006
:100BA80084848382050E47EC0BF03E06849483927E
:100BB8003E6601D07FD7050E47EC0BF08484838214
:100BC800050E47EC0BF03E06849483923E6601D0F6
:100BD80071D7050E47EC0BF084848382050E47EC31
:100BE8000BF03E06849483923E6601D063D7050ECF
:100BF80047EC0BF084848382050E47EC0BF03E062D
:100C0800849483923E6601D055D7050E47EC0BF0CD
:100C180084848382050E47EC0BF03E06849483920D
:100C28003E6601D047D7050E47EC0BF084848382DB
:100C3800050E47EC0BF03E06849483923E6601D085
:100C480039D7050E47EC0BF084848382050E47ECF8
:100C58000BF03E06849483923E6601D02BD7050E96
:100C680047EC0BF084848382050E47EC0BF03E06BC
:100C7800849483923E6601D01DD7050E47EC0BF095
:100C880084848382050E47EC0BF03E06849483929D
:100C98003E6601D00FD7050E47EC0BF084848382A3
:100CA800050E47EC0BF03E068494839203D7F29E20
:100CB8000F01386B396B3A6B3B6B3C6B9AEC0BF062
:100CC800D00E436E120E446E130E456E000E466A29
:100CD800476A1CEC0AF0D00E436E120E446E130ED7
:100CE800456E000E466A476ADEEC09F0D08EF28C3B
:100CF8008B8A4A6B810E4C6F7E947F847D840F01B2
:100D08004A85CF0E4E173F0E4E174E837D924E8169
:100D18003E914951FC0B0209496F9D943E934951FC
:100D2800E70B1009496FA090050E0001996F9A6BA7
:100D38009B6B9C6BF29E010E8CB4000E946F9447D3
:100D480094478C509419FB0B94198C6E010E8CB23D
:100D5800000E946F94478C509419FD0B94198C6E67
:100D680013EC00F016EC05F08AEC03F02650020DA7
:100D7800F3500001600FD96EDA6ADE52DD50800A46
:100D8800800F640ED8B4DF5C23E2265095EC0AF09D
:100D9800000909E02650020DF350600FD96EDA6A97
:100DA800DE2A000EDD2226C094F0010E956F966BA8
:100DB800942B03D0D89095379637942FFBD7951D51
:100DC800976F961D986F97510116985102161DD06E
:100DD80026C094F0010E956F966B942B03D0D89093
:100DE80095379637942FFBD79551011296510212D9
:100DF800265095EC0AF0000908E12650020DF35040
:100E0800600FD96EDA6ADE6ADD6A262A26500E0A73
:100E1800D8B4266A01C09DF0025000019E6F5204AA
:100E280006E130EC08F0000908E0020E05D063EC9A
:100E380007F0000902E0010E526E9EC036F050C065
:100E480037F051C038F000019D51FAEC0AF01D50FE
:100E58001DE01D501E181AE01DC01EF01D50370A57
:100E680009E18494050E47EC0BF08484050E47ECE9
:100E78000BF084941D50380A09E18392050E47EC63
:100E88000BF08382050E47EC0BF083920001992B3F
:100E9800000E9A239B239C239C51800A800F08E113
:100EA800000E9B5D05E1270E9A5D02E1120E995D29
:100EB80001E241D7996B9A6B9B6B9C6B3CD75406AC
:100EC800542801E0B6D0640E546EC80E516E020C60
:100ED800010E286E666A0F013E936650F00B0509F5
:100EE800666EA190000CA1A0000C67CF13F068CF2C
:100EF80014F0666A0F013E936650F00B0409666EA3
:100F0800A190020E7FD0A1A0000C67CF11F068CF8E
:100F180012F0666A0F013E936650F00B0509666E83
:100F2800A190030E6FD0A1A0000C640E546E666AE7
:100F3800A190131C446E141C456E11504426125087
:100F4800452244280D6E000E45200E6E111C446E7D
:100F5800121C456E675044266850452244280F6E7F
:100F6800000E4520106E040E4DD00DC044F00EC08A
:100F780045F00F50442610504522110E445C270EB0
:100F880045581BE30DC044F00EC045F00F504426F1
:100F980010504522D8904530476E4430466E0D506B
:100FA8000F5C0E50105805E246500D5E47500E5A21
:100FB80004D046500F5E4750105A050E23D0110E2C
:100FC8000D24446E000E0E20456E44C036F045C018
:100FD80037F0386A396A010E3A6E3B6E000E3C6A89
:100FE8003D6A21EC0BF036C090F037C091F038C064
:100FF80092F039C093F00F500D24156E10500E204A
:10100800166E060E286E000C90C036F091C037F0B0
:1010180092C038F093C039F015C03AF016C03BF0D2
:101028003C6A3D6A80EC09F03650516E5106286AD8
:10103800010C285001E14CD7010A01E154D7030AF9
:1010480001E161D7010A01E16ED7070A8EE0010AC2
:10105800B6E0030AD9E0010C5306532801E0AED0EC
:10106800640E536E506E020C010E276EBD6A0F019E
:101078003E91BD50F00B0509BD6E9E94000C9EA4D8
:10108800000CBECF09F0BFCF0AF0BD6A0F013E9138
:10109800BD50F00B0409BD6E9E94020E78D09EA43C
:1010A800000CBECF07F0BFCF08F0BD6A0F013E911C
:1010B800BD50F00B0509BD6E9E94030E68D09EA42A
:1010C800000C640E536EBD6A9E940950075C036E53
:1010D8000A500858046E071C446E081C456EBE5022
:1010E8004426BF5045224428056E000E4520066E52
:1010F800040E4DD003C044F004C045F0055044260A
:1011080006504522110E445C270E45581BE303C0C8
:1011180044F004C045F00550442606504522D890B6
:101128004530476E4430466E0350055C04500658FF
:1011380005E24650035E4750045A04D04650055E07
:101148004750065A050E23D0110E0324446E000E94
:101158000420456E44C036F045C037F0386A396A15
:10116800010E3A6E3B6E000E3C6A3D6A21EC0BF0B4
:1011780036C08CF037C08DF038C08EF039C08FF093
:10118800055003240B6E065004200C6E060E276EC5
:10119800000C8CC036F08DC037F08EC038F08FC090
:1011A80039F00BC03AF00CC03BF03C6A3D6A80EC69
:1011B80009F03650506E5006276A010C275001E19D
:1011C80053D7010A01E15BD7030A01E168D7010A95
:1011D80001E175D7070A8EE0010AB6E0030AD9E0F3
:1011E800010CF29E71A201D001D047D0719871888C
:1011F800A49A43D0296A74CF34F02B500001860F8B
:10120800D96EDA6A34C0DFFF2B2A050E2B6401D0B1
:1012180001D033D02B6A875186C02CF02D6A2C263A
:10122800000E2D2288512C26000E2D2289512C26A5
:10123800000E2D22300E2C24306E750E2D20316EAE
:101248008A512D6E2C6A8B512C24326E000E2D2063
:10125800336E3350311802E132503018D8A401D01F
:1012680001D009D086C020F087C021F088C022F0C4
:1012780089C01DF002D09F4BA02BA4BA01D001D089
:10128800B9D77EA401D001D031D0060E2A6001D092
:1012980001D007D02A500001800FD96EDA6ADF50DA
:1012A800AD6E2A50070AD8A401D001D00ED02A6A00
:1012B80017C080F018C081F019C082F01AC083F0FE
:1012C8001BC084F01CC085F001D02A2AA4AA01D032
:1012D80001D001D0296A292A020E296401D001D03F
:1012E80001D02B6A7E94810E0F014C6FF28E2FC0B5
:1012F800DAFF2EC0D9FF11003F6A3DAE0AD03D1E6D
:101308003C1E3B1E3A6C000E3B223C223D22010E45
:101318003F6E39AE0AD0391E381E371E366C000EA5
:10132800372238223922010E3F1A406A416A426A3E
:10133800436A3D503A103B103C1029E0010E3E6EC6
:1013480006D0D8903A363B363C363D363E2A3DAE3E
:10135800F8D7D89040364136423643363A50365C54
:101368003B5037583C5038583D50395809E33A50AB
:10137800365E3B50375A3C50385A3D50395A4080B7
:10138800D8903D323C323B323A323E2EE2D73F5083
:1013980008E0431E421E411E406C000E41224222BC
:1013A800432240C036F041C037F042C038F043C055
:1013B80039F01200366A870E376E930E386E030EB8
:1013C800396E43C048F044C049F045C04AF046C0B1
:1013D8004BF0020ED890483649364A364B36E82E3E
:1013E800F9D748C03AF049C03BF04AC03CF04BC07E
:1013F8003DF05AEC0AF0FF0E36244C6EFF0E3720F3
:101408004D6EFF0E38204E6EFF0E39204F6E4DC0C8
:10141800B0FF4CC0AFFFA40EAC6E900EAB6E080EC2
:10142800B86E47A001D09D8A47B001D09D9A12009E
:10143800366A870E376E930E386E030E396E43C0C8
:1014480048F044C049F045C04AF046C04BF0020E8F
:10145800D890483649364A364B36E82EF9D748C030
:101468003AF049C03BF04AC03CF04BC03DF05AEC62
:101478000AF0FF0E36244C6EFF0E37204D6EFF0E1D
:1014880038204E6EFF0E39204F6E4DC076FF4CC08F
:1014980075FFA40E726E900E716E080E706E47A0E6
:1014A80001D0A38A47B001D0A39A12003E6A3F6ACE
:1014B800406A416A3D503A103B103C1029E0010E49
:1014C800426E06D0D8903A363B363C363D36422AF4
:1014D8003DAEF8D7D8903E363F36403641363A5082
:1014E800365C3B5037583C5038583D50395809E322
:1014F8003A50365E3B50375A3C50385A3D50395A6C
:101508003E80D8903D323C323B323A32422EE2D7CE
:101518003EC036F03FC037F040C038F041C039F027
:101528001200E8CF36F022D08150010B1200813032
:10153800010B12008130E832010B12008130E832D1
:10154800E832010B12008138010B12008050010BA8
:1015580012008030010B12008030E832010B1200BB
:1015680080A6010C000C80A8010C000C3650DCE0B1
:10157800010ADDE0030ADEE0010AE0E0070AE3E031
:101588000C0AE4E0010AE5E0030AE6E0010AE8E003
:10159800070AE9E0000C00EE60F0340EEE6AE80697
:1015A800FDE100EE01F02B0EEE6AE806FDE1590EB2
:1015B800F66E170EF76E000EF86E0900F5CF9FF065
:1015C8000900F5CFA0F0540EF66E170EF76E000E58
:1015D800F86E00EE50F010EE05F00900F5CFEEFFC2
:1015E800E550E150FAE100015BEF06F0E8CF3BF08F
:1015F80036503BC039F03A6A3926000E3A22375045
:101608003926000E3A2238503926000E3A22300E7A
:1016180039243C6E750E3A203D6EF29E00F03BC0B8
:1016280017F036C018F037C019F038C01AF03D501E
:101638001B6E3CC01CF0F28E12003E6A3F6A406A84
:10164800416A36A008D03A503E263B503F223C50D3
:1016580040223D504122D8903A363B363C363D3602
:10166800D89039323832373236323950361037104E
:101678003810E7E13EC036F03FC037F040C038F0E0
:1016880041C039F01200E8CF36F036063628D8B413
:10169800120036063628D8B4120036063628D8B4D2
:1016A800120036063628D8B4120036063628D8B4C2
:1016B800120036063628D8B4120036063628D8B4B2
:1016C800120036063628D8A43606120008D0290E8D
:1016D800E82EFED700D0F60E3626FF0E37223750FA
:1016E800800A800F0A0ED8B4365C03E3F0D700D026
:1016F80000D03606D8A037063628D8B43728D8B44C
:101708001200F5D737AE0DD036C038F037C039F0F3
:10171800381E391E384A392A38C036F039C037F0F1
:10172800120036C036F037C037F01200DF0E926E66
:101738003F0E936E860E946EA90E956E080E966EE9
:10174800806A816A826A836A846A120064C8016452
:041758006401000028
:020000040020DA
:080000000001020304050607DC
:020000040030CA
:0600010073060000B58546
:060008000FC00FE00F40E5
:00000001FF
